{
  "_format": "hh-sol-artifact-1",
  "contractName": "SupplierRegistry",
  "sourceName": "contracts/SupplierRegistry.sol",
  "abi": [
    {
      "inputs": [],
      "stateMutability": "nonpayable",
      "type": "constructor"
    },
    {
      "inputs": [
        {
          "internalType": "address",
          "name": "_supplier",
          "type": "address"
        }
      ],
      "name": "getSupplier",
      "outputs": [
        {
          "components": [
            {
              "internalType": "string",
              "name": "name",
              "type": "string"
            },
            {
              "internalType": "string",
              "name": "email",
              "type": "string"
            },
            {
              "internalType": "string",
              "name": "serviceType",
              "type": "string"
            },
            {
              "internalType": "bool",
              "name": "verified",
              "type": "bool"
            }
          ],
          "internalType": "struct SupplierRegistry.Supplier",
          "name": "",
          "type": "tuple"
        }
      ],
      "stateMutability": "view",
      "type": "function"
    },
    {
      "inputs": [],
      "name": "owner",
      "outputs": [
        {
          "internalType": "address",
          "name": "",
          "type": "address"
        }
      ],
      "stateMutability": "view",
      "type": "function"
    },
    {
      "inputs": [
        {
          "internalType": "string",
          "name": "_name",
          "type": "string"
        },
        {
          "internalType": "string",
          "name": "_email",
          "type": "string"
        },
        {
          "internalType": "string",
          "name": "_serviceType",
          "type": "string"
        }
      ],
      "name": "registerSupplier",
      "outputs": [],
      "stateMutability": "nonpayable",
      "type": "function"
    },
    {
      "inputs": [
        {
          "internalType": "address",
          "name": "",
          "type": "address"
        }
      ],
      "name": "suppliers",
      "outputs": [
        {
          "internalType": "string",
          "name": "name",
          "type": "string"
        },
        {
          "internalType": "string",
          "name": "email",
          "type": "string"
        },
        {
          "internalType": "string",
          "name": "serviceType",
          "type": "string"
        },
        {
          "internalType": "bool",
          "name": "verified",
          "type": "bool"
        }
      ],
      "stateMutability": "view",
      "type": "function"
    },
    {
      "inputs": [
        {
          "internalType": "address",
          "name": "_supplier",
          "type": "address"
        }
      ],
      "name": "verifySupplier",
      "outputs": [],
      "stateMutability": "nonpayable",
      "type": "function"
    }
  ],
  "bytecode": "0x6080604052348015600f57600080fd5b50336000806101000a81548173ffffffffffffffffffffffffffffffffffffffff021916908373ffffffffffffffffffffffffffffffffffffffff160217905550610f3a8061005f6000396000f3fe608060405234801561001057600080fd5b50600436106100575760003560e01c806316dc15fe1461005c5780634959e0871461008f5780638da5cb5b146100ab578063a1c2e79c146100c9578063fe7009f2146100e5575b600080fd5b6100766004803603810190610071919061078c565b610115565b6040516100869493929190610864565b60405180910390f35b6100a960048036038101906100a4919061078c565b6102ea565b005b6100b36103d5565b6040516100c091906108cd565b60405180910390f35b6100e360048036038101906100de9190610a1d565b6103f9565b005b6100ff60048036038101906100fa919061078c565b6104c6565b60405161010c9190610b8e565b60405180910390f35b600160205280600052604060002060009150905080600001805461013890610bdf565b80601f016020809104026020016040519081016040528092919081815260200182805461016490610bdf565b80156101b15780601f10610186576101008083540402835291602001916101b1565b820191906000526020600020905b81548152906001019060200180831161019457829003601f168201915b5050505050908060010180546101c690610bdf565b80601f01602080910402602001604051908101604052809291908181526020018280546101f290610bdf565b801561023f5780601f106102145761010080835404028352916020019161023f565b820191906000526020600020905b81548152906001019060200180831161022257829003601f168201915b50505050509080600201805461025490610bdf565b80601f016020809104026020016040519081016040528092919081815260200182805461028090610bdf565b80156102cd5780601f106102a2576101008083540402835291602001916102cd565b820191906000526020600020905b8154815290600101906020018083116102b057829003601f168201915b5050505050908060030160009054906101000a900460ff16905084565b60008054906101000a900473ffffffffffffffffffffffffffffffffffffffff1673ffffffffffffffffffffffffffffffffffffffff163373ffffffffffffffffffffffffffffffffffffffff1614610378576040517f08c379a000000000000000000000000000000000000000000000000000000000815260040161036f90610c5c565b60405180910390fd5b60018060008373ffffffffffffffffffffffffffffffffffffffff1673ffffffffffffffffffffffffffffffffffffffff16815260200190815260200160002060030160006101000a81548160ff02191690831515021790555050565b60008054906101000a900473ffffffffffffffffffffffffffffffffffffffff1681565b604051806080016040528084815260200183815260200182815260200160001515815250600160003373ffffffffffffffffffffffffffffffffffffffff1673ffffffffffffffffffffffffffffffffffffffff16815260200190815260200160002060008201518160000190816104719190610e32565b5060208201518160010190816104879190610e32565b50604082015181600201908161049d9190610e32565b5060608201518160030160006101000a81548160ff021916908315150217905550905050505050565b6104ce6106f0565b600160008373ffffffffffffffffffffffffffffffffffffffff1673ffffffffffffffffffffffffffffffffffffffff16815260200190815260200160002060405180608001604052908160008201805461052890610bdf565b80601f016020809104026020016040519081016040528092919081815260200182805461055490610bdf565b80156105a15780601f10610576576101008083540402835291602001916105a1565b820191906000526020600020905b81548152906001019060200180831161058457829003601f168201915b505050505081526020016001820180546105ba90610bdf565b80601f01602080910402602001604051908101604052809291908181526020018280546105e690610bdf565b80156106335780601f1061060857610100808354040283529160200191610633565b820191906000526020600020905b81548152906001019060200180831161061657829003601f168201915b5050505050815260200160028201805461064c90610bdf565b80601f016020809104026020016040519081016040528092919081815260200182805461067890610bdf565b80156106c55780601f1061069a576101008083540402835291602001916106c5565b820191906000526020600020905b8154815290600101906020018083116106a857829003601f168201915b505050505081526020016003820160009054906101000a900460ff1615151515815250509050919050565b60405180608001604052806060815260200160608152602001606081526020016000151581525090565b6000604051905090565b600080fd5b600080fd5b600073ffffffffffffffffffffffffffffffffffffffff82169050919050565b60006107598261072e565b9050919050565b6107698161074e565b811461077457600080fd5b50565b60008135905061078681610760565b92915050565b6000602082840312156107a2576107a1610724565b5b60006107b084828501610777565b91505092915050565b600081519050919050565b600082825260208201905092915050565b60005b838110156107f35780820151818401526020810190506107d8565b60008484015250505050565b6000601f19601f8301169050919050565b600061081b826107b9565b61082581856107c4565b93506108358185602086016107d5565b61083e816107ff565b840191505092915050565b60008115159050919050565b61085e81610849565b82525050565b6000608082019050818103600083015261087e8187610810565b905081810360208301526108928186610810565b905081810360408301526108a68185610810565b90506108b56060830184610855565b95945050505050565b6108c78161074e565b82525050565b60006020820190506108e260008301846108be565b92915050565b600080fd5b600080fd5b7f4e487b7100000000000000000000000000000000000000000000000000000000600052604160045260246000fd5b61092a826107ff565b810181811067ffffffffffffffff82111715610949576109486108f2565b5b80604052505050565b600061095c61071a565b90506109688282610921565b919050565b600067ffffffffffffffff821115610988576109876108f2565b5b610991826107ff565b9050602081019050919050565b82818337600083830152505050565b60006109c06109bb8461096d565b610952565b9050828152602081018484840111156109dc576109db6108ed565b5b6109e784828561099e565b509392505050565b600082601f830112610a0457610a036108e8565b5b8135610a148482602086016109ad565b91505092915050565b600080600060608486031215610a3657610a35610724565b5b600084013567ffffffffffffffff811115610a5457610a53610729565b5b610a60868287016109ef565b935050602084013567ffffffffffffffff811115610a8157610a80610729565b5b610a8d868287016109ef565b925050604084013567ffffffffffffffff811115610aae57610aad610729565b5b610aba868287016109ef565b9150509250925092565b600082825260208201905092915050565b6000610ae0826107b9565b610aea8185610ac4565b9350610afa8185602086016107d5565b610b03816107ff565b840191505092915050565b610b1781610849565b82525050565b60006080830160008301518482036000860152610b3a8282610ad5565b91505060208301518482036020860152610b548282610ad5565b91505060408301518482036040860152610b6e8282610ad5565b9150506060830151610b836060860182610b0e565b508091505092915050565b60006020820190508181036000830152610ba88184610b1d565b905092915050565b7f4e487b7100000000000000000000000000000000000000000000000000000000600052602260045260246000fd5b60006002820490506001821680610bf757607f821691505b602082108103610c0a57610c09610bb0565b5b50919050565b7f4e6f7420617574686f72697a6564000000000000000000000000000000000000600082015250565b6000610c46600e836107c4565b9150610c5182610c10565b602082019050919050565b60006020820190508181036000830152610c7581610c39565b9050919050565b60008190508160005260206000209050919050565b60006020601f8301049050919050565b600082821b905092915050565b600060088302610cde7fffffffffffffffffffffffffffffffffffffffffffffffffffffffffffffffff82610ca1565b610ce88683610ca1565b95508019841693508086168417925050509392505050565b6000819050919050565b6000819050919050565b6000610d2f610d2a610d2584610d00565b610d0a565b610d00565b9050919050565b6000819050919050565b610d4983610d14565b610d5d610d5582610d36565b848454610cae565b825550505050565b600090565b610d72610d65565b610d7d818484610d40565b505050565b5b81811015610da157610d96600082610d6a565b600181019050610d83565b5050565b601f821115610de657610db781610c7c565b610dc084610c91565b81016020851015610dcf578190505b610de3610ddb85610c91565b830182610d82565b50505b505050565b600082821c905092915050565b6000610e0960001984600802610deb565b1980831691505092915050565b6000610e228383610df8565b9150826002028217905092915050565b610e3b826107b9565b67ffffffffffffffff811115610e5457610e536108f2565b5b610e5e8254610bdf565b610e69828285610da5565b600060209050601f831160018114610e9c5760008415610e8a578287015190505b610e948582610e16565b865550610efc565b601f198416610eaa86610c7c565b60005b82811015610ed257848901518255600182019150602085019450602081019050610ead565b86831015610eef5784890151610eeb601f891682610df8565b8355505b6001600288020188555050505b50505050505056fea26469706673582212201bc0f7c58e85ff3ffcd4344e2995f4f07d30d75e1b1f61920a6f7dbf1d87082c64736f6c634300081c0033",
  "linkReferences": {},
  "deployedLinkReferences": {}
}